{
  "contractName": "LitterCleanup",
  "abi": [
    {
      "inputs": [],
      "stateMutability": "nonpayable",
      "type": "constructor"
    },
    {
      "anonymous": false,
      "inputs": [
        {
          "indexed": false,
          "internalType": "uint256",
          "name": "bidId",
          "type": "uint256"
        }
      ],
      "name": "BidAccepted",
      "type": "event"
    },
    {
      "anonymous": false,
      "inputs": [
        {
          "indexed": false,
          "internalType": "uint256",
          "name": "bidId",
          "type": "uint256"
        }
      ],
      "name": "BidCleanedUp",
      "type": "event"
    },
    {
      "anonymous": false,
      "inputs": [
        {
          "indexed": false,
          "internalType": "uint256",
          "name": "bidId",
          "type": "uint256"
        },
        {
          "indexed": false,
          "internalType": "address",
          "name": "bidder",
          "type": "address"
        },
        {
          "indexed": false,
          "internalType": "uint256",
          "name": "cleanupScale",
          "type": "uint256"
        },
        {
          "indexed": false,
          "internalType": "uint256",
          "name": "payment",
          "type": "uint256"
        }
      ],
      "name": "BidPlaced",
      "type": "event"
    },
    {
      "inputs": [
        {
          "internalType": "uint256",
          "name": "",
          "type": "uint256"
        }
      ],
      "name": "bids",
      "outputs": [
        {
          "internalType": "address payable",
          "name": "bidder",
          "type": "address"
        },
        {
          "internalType": "uint256",
          "name": "cleanupScale",
          "type": "uint256"
        },
        {
          "internalType": "uint256",
          "name": "payment",
          "type": "uint256"
        },
        {
          "internalType": "bool",
          "name": "accepted",
          "type": "bool"
        },
        {
          "internalType": "bool",
          "name": "cleanedUp",
          "type": "bool"
        }
      ],
      "stateMutability": "view",
      "type": "function",
      "constant": true
    },
    {
      "inputs": [],
      "name": "cleanupCount",
      "outputs": [
        {
          "internalType": "uint256",
          "name": "",
          "type": "uint256"
        }
      ],
      "stateMutability": "view",
      "type": "function",
      "constant": true
    },
    {
      "inputs": [],
      "name": "owner",
      "outputs": [
        {
          "internalType": "address payable",
          "name": "",
          "type": "address"
        }
      ],
      "stateMutability": "view",
      "type": "function",
      "constant": true
    },
    {
      "inputs": [
        {
          "internalType": "uint256",
          "name": "cleanupScale",
          "type": "uint256"
        },
        {
          "internalType": "uint256",
          "name": "payment",
          "type": "uint256"
        }
      ],
      "name": "placeBid",
      "outputs": [],
      "stateMutability": "payable",
      "type": "function",
      "payable": true
    },
    {
      "inputs": [
        {
          "internalType": "uint256",
          "name": "bidId",
          "type": "uint256"
        }
      ],
      "name": "acceptBid",
      "outputs": [],
      "stateMutability": "nonpayable",
      "type": "function"
    },
    {
      "inputs": [
        {
          "internalType": "uint256",
          "name": "bidId",
          "type": "uint256"
        }
      ],
      "name": "cleanUp",
      "outputs": [],
      "stateMutability": "nonpayable",
      "type": "function"
    },
    {
      "inputs": [],
      "name": "getCleanupCount",
      "outputs": [
        {
          "internalType": "uint256",
          "name": "",
          "type": "uint256"
        }
      ],
      "stateMutability": "view",
      "type": "function",
      "constant": true
    }
  ],
  "bytecode": "0x608060405234801561001057600080fd5b50336000806101000a81548173ffffffffffffffffffffffffffffffffffffffff021916908373ffffffffffffffffffffffffffffffffffffffff1602179055506000600181905550610bd7806100686000396000f3fe6080604052600436106100705760003560e01c80635aceda021161004e5780635aceda02146100fb5780638da5cb5b146101265780639a9f720b14610151578063a826b2351461017c57610070565b80632b1fd58a146100755780634423c5f11461009e57806357c90de5146100df575b600080fd5b34801561008157600080fd5b5061009c60048036038101906100979190610736565b6101a5565b005b3480156100aa57600080fd5b506100c560048036038101906100c09190610736565b610300565b6040516100d69594939291906107ce565b60405180910390f35b6100f960048036038101906100f49190610821565b610370565b005b34801561010757600080fd5b50610110610504565b60405161011d9190610861565b60405180910390f35b34801561013257600080fd5b5061013b61050a565b604051610148919061087c565b60405180910390f35b34801561015d57600080fd5b5061016661052e565b6040516101739190610861565b60405180910390f35b34801561018857600080fd5b506101a3600480360381019061019e9190610736565b610538565b005b60008054906101000a900473ffffffffffffffffffffffffffffffffffffffff1673ffffffffffffffffffffffffffffffffffffffff163373ffffffffffffffffffffffffffffffffffffffff1614610233576040517f08c379a000000000000000000000000000000000000000000000000000000000815260040161022a906108f4565b60405180910390fd5b6002600082815260200190815260200160002060030160009054906101000a900460ff1615610297576040517f08c379a000000000000000000000000000000000000000000000000000000000815260040161028e90610960565b60405180910390fd5b60016002600083815260200190815260200160002060030160006101000a81548160ff0219169083151502179055507fdae9b816a28581add361a0918ca189b6c12f22389c20458b367be4cad2e02a6b816040516102f59190610861565b60405180910390a150565b60026020528060005260406000206000915090508060000160009054906101000a900473ffffffffffffffffffffffffffffffffffffffff16908060010154908060020154908060030160009054906101000a900460ff16908060030160019054906101000a900460ff16905085565b803410156103b3576040517f08c379a00000000000000000000000000000000000000000000000000000000081526004016103aa906109cc565b60405180910390fd5b600160008154809291906103c690610a1b565b91905055506040518060a001604052803373ffffffffffffffffffffffffffffffffffffffff1681526020018381526020018281526020016000151581526020016000151581525060026000600154815260200190815260200160002060008201518160000160006101000a81548173ffffffffffffffffffffffffffffffffffffffff021916908373ffffffffffffffffffffffffffffffffffffffff160217905550602082015181600101556040820151816002015560608201518160030160006101000a81548160ff02191690831515021790555060808201518160030160016101000a81548160ff0219169083151502179055509050507f51db8e23b3f4479b162fd48823b8402895442b8f6cfd94f66239391881ec7b6f6001543384846040516104f89493929190610a84565b60405180910390a15050565b60015481565b60008054906101000a900473ffffffffffffffffffffffffffffffffffffffff1681565b6000600154905090565b6002600082815260200190815260200160002060030160009054906101000a900460ff1661059b576040517f08c379a000000000000000000000000000000000000000000000000000000000815260040161059290610b15565b60405180910390fd5b6002600082815260200190815260200160002060030160019054906101000a900460ff16156105ff576040517f08c379a00000000000000000000000000000000000000000000000000000000081526004016105f690610b81565b60405180910390fd5b60016002600083815260200190815260200160002060030160016101000a81548160ff0219169083151502179055506002600082815260200190815260200160002060000160009054906101000a900473ffffffffffffffffffffffffffffffffffffffff1673ffffffffffffffffffffffffffffffffffffffff166108fc60026000848152602001908152602001600020600201549081150290604051600060405180830381858888f193505050501580156106c0573d6000803e3d6000fd5b507f2efaf9a225cb75cc9dde96a44c34c5a20b0685f6fe1a1a2c947a3493bd1b4933816040516106f09190610861565b60405180910390a150565b600080fd5b6000819050919050565b61071381610700565b811461071e57600080fd5b50565b6000813590506107308161070a565b92915050565b60006020828403121561074c5761074b6106fb565b5b600061075a84828501610721565b91505092915050565b600073ffffffffffffffffffffffffffffffffffffffff82169050919050565b600061078e82610763565b9050919050565b61079e81610783565b82525050565b6107ad81610700565b82525050565b60008115159050919050565b6107c8816107b3565b82525050565b600060a0820190506107e36000830188610795565b6107f060208301876107a4565b6107fd60408301866107a4565b61080a60608301856107bf565b61081760808301846107bf565b9695505050505050565b60008060408385031215610838576108376106fb565b5b600061084685828601610721565b925050602061085785828601610721565b9150509250929050565b600060208201905061087660008301846107a4565b92915050565b60006020820190506108916000830184610795565b92915050565b600082825260208201905092915050565b7f4f6e6c7920746865206f776e65722063616e2061636365707420626964730000600082015250565b60006108de601e83610897565b91506108e9826108a8565b602082019050919050565b6000602082019050818103600083015261090d816108d1565b9050919050565b7f4269642068617320616c7265616479206265656e206163636570746564000000600082015250565b600061094a601d83610897565b915061095582610914565b602082019050919050565b600060208201905081810360008301526109798161093d565b9050919050565b7f496e73756666696369656e74207061796d656e74000000000000000000000000600082015250565b60006109b6601483610897565b91506109c182610980565b602082019050919050565b600060208201905081810360008301526109e5816109a9565b9050919050565b7f4e487b7100000000000000000000000000000000000000000000000000000000600052601160045260246000fd5b6000610a2682610700565b91507fffffffffffffffffffffffffffffffffffffffffffffffffffffffffffffffff8203610a5857610a576109ec565b5b600182019050919050565b6000610a6e82610763565b9050919050565b610a7e81610a63565b82525050565b6000608082019050610a9960008301876107a4565b610aa66020830186610a75565b610ab360408301856107a4565b610ac060608301846107a4565b95945050505050565b7f42696420686173206e6f74206265656e20616363657074656400000000000000600082015250565b6000610aff601983610897565b9150610b0a82610ac9565b602082019050919050565b60006020820190508181036000830152610b2e81610af2565b9050919050565b7f4269642068617320616c7265616479206265656e20636c65616e656420757000600082015250565b6000610b6b601f83610897565b9150610b7682610b35565b602082019050919050565b60006020820190508181036000830152610b9a81610b5e565b905091905056fea264697066735822122068ecab546dbd026aedee481ccda5b5c87dfacaa7ddb7cebb8cf53d0eac711a4764736f6c63430008130033",
  "immutableReferences": {},
  "source": "//SPDX-License-Identifier: MIT\npragma solidity ^0.8.0;\n\ncontract LitterCleanup {\n    address payable public owner;\n    uint public cleanupCount;\n\n    struct Bid {\n        address payable bidder;\n        uint cleanupScale;\n        uint payment;\n        bool accepted;\n        bool cleanedUp;\n    }\n\n    mapping(uint => Bid) public bids;\n\n    event BidPlaced(uint bidId, address bidder, uint cleanupScale, uint payment);\n    event BidAccepted(uint bidId);\n    event BidCleanedUp(uint bidId);\n\n    constructor() {\n        owner = payable(msg.sender);\n        cleanupCount = 0;\n    }\n\n    function placeBid(uint cleanupScale, uint payment) public payable {\n        require(msg.value >= payment, \"Insufficient payment\");\n        cleanupCount++;\n        bids[cleanupCount] = Bid(payable(msg.sender), cleanupScale, payment, false, false);\n        emit BidPlaced(cleanupCount, msg.sender, cleanupScale, payment);\n    }\n\n    function acceptBid(uint bidId) public {\n        require(msg.sender == owner, \"Only the owner can accept bids\");\n        require(!bids[bidId].accepted, \"Bid has already been accepted\");\n        bids[bidId].accepted = true;\n        emit BidAccepted(bidId);\n    }\n\n    function cleanUp(uint bidId) public {\n        require(bids[bidId].accepted, \"Bid has not been accepted\");\n        require(!bids[bidId].cleanedUp, \"Bid has already been cleaned up\");\n        bids[bidId].cleanedUp = true;\n        bids[bidId].bidder.transfer(bids[bidId].payment);\n        emit BidCleanedUp(bidId);\n    }\n    function getCleanupCount() public view returns (uint) {\n    return cleanupCount;\n}\n}",
  "sourcePath": "/Users/mondweep/sponsored-cleanup/contracts/LitterCleanup.sol",
  "compiler": {
    "name": "solc",
    "version": "0.8.19+commit.7dd6d404.Emscripten.clang"
  },
  "schemaVersion": "3.4.13",
  "updatedAt": "2023-04-25T16:51:30.946Z",
  "networkType": "ethereum",
  "devdoc": {
    "kind": "dev",
    "methods": {},
    "version": 1
  },
  "userdoc": {
    "kind": "user",
    "methods": {},
    "version": 1
  }
}